:020000040000FA
:0200000047298E
:08000800090020083F39A500A2
:100010002D3A0319003425081D3A03190134250827
:10002000353A0319023425082B3A031903342508FD
:100030002E3A031904340534052082074A285B2828
:100040006C288F285A29FA28052082075A29A028C7
:10005000B128C228E528FA280611061086100800E3
:100060002C20FD205A2906148610061508000610BB
:1000700086140615080086128611061208003B2019
:10008000FD205A29861506128616080086110616C6
:100090008616080037206430A8004F283121A80BAD
:1000A0005228F6281D21052082074E2830284E2888
:1000B0004E284E284E2833206430A8006028312175
:1000C000A80B6328F6281D21052082075F285F28DA
:1000D00030285F285F285F2837206430A800712807
:1000E0003121A80B7428F6281D21052082077D28C0
:1000F000702870287028702870282C2046206430C2
:10010000A80083283121A80B8628F8281D21052066
:1001100082078228822882283F288228822842203B
:100120006430A80094283121A80B9728F8281D21B5
:100130000520820793289328932893283F28932803
:1001400033206430A800A5283121A80BA828F62860
:100150001D21052082073028A428A428A428A4282B
:10016000A42837206430A800B6283121A80BB9286C
:10017000F6281D2105208207B5283028B528B52886
:10018000B528B52842206430A800C7283121A80B23
:10019000CA28F8281D2105208207D328C628C6288A
:1001A000C628C628C6283B2033206430A800D9289A
:1001B0003121A80BDC28F6281D2105208207D8282C
:1001C000D8283028D828D828D82846206430A80035
:1001D000EA283121A80BED28F8281D2105208207E7
:1001E000E928E928E9283F28E928E9282C20FA28E5
:1001F0003B20FA282714FD205A29A6010520A30038
:10020000A30A0314A60DA30B02292718A61608306B
:10021000A3000310260C031C10290E298617112990
:100220008613A6000617312106133121A30B0A29D4
:1002300085153121851100000800A0010515312127
:100240000511000000000830A300851003100518F8
:100250000314A00D8514312185103121A30B26290B
:100260000800F930FF3E6400031D32290800031323
:100270008316013085000030860080308100003018
:100280008B000313831207309F00A701080037215A
:1002900031211D21FD20A101A01F5B29201F5B2909
:1002A00048292108C039C03A03194829A11B1C2834
:1002B000211B242848292008FF3AC039A104FF3017
:1002C000A200A20B61291D212008FF3AC039A10418
:0A02D000A01F6329201F6329512994
:02400E00741F1D
:00000001FF
