:020000040000FA
:1000000013280000000000000000031383160130D5
:100010008500003086008030810003138312073092
:100020009F00A701080005203821A101A01B252859
:10003000201B252814282108C039C03A0319142888
:10004000A11B4C28211B542814282008C039A104C6
:10005000FF30A200A20B2A2838212008C039A104B1
:10006000A01B2C28201B2C281B2820083F39A5006A
:10007000123A031900342508223A031901342508DD
:100080000A3A031902342508143A031903342508DF
:10009000113A03190434053435208207782888285A
:1000A0009828B82824281C29352082072428C82805
:1000B000D828E82808291C290611061086100800EF
:1000C0005C201E29061486100615080006108614EA
:1000D0000615080086128611061208006A201E29DD
:1000E0008615061286160800861106168616080062
:1000F00066206430A8004D21A803031D182938216B
:10010000352082077B2860287B287B287B287B285A
:1001100062206430A8004D21A803031D182938214E
:10012000352082078B288B2860288B288B288B28EA
:1001300066206430A8004D21A803031D182938212A
:1001400035208207A8289B289B289B289B289B2832
:1001500070206430A8004D21A803031D1A293821FE
:1001600035208207AB28AB28AB286E28AB28AB28FC
:1001700070206430A8004D21A803031D1A293821DE
:1001800035208207BB28BB28BB28BB286E28BB288C
:1001900062206430A8004D21A803031D18293821CE
:1001A000352082076028CB28CB28CB28CB28CB282A
:1001B00062206430A8004D21A803031D18293821AE
:1001C00035208207DB286028DB28DB28DB28DB28BA
:1001D00070206430A8004D21A803031D1A2938217E
:1001E00035208207F828EB28EB28EB28EB28EB28B2
:1001F00062206430A8004D21A803031D182938216E
:1002000035208207FB28FB286028FB28FB28FB28D9
:1002100074206430A8004D21A803031D1A29382139
:10022000352082070B290B290B296E280B290B2956
:100230005C201C296A201C2927141E29A6013520B0
:1002400026142718A6160830A300260C031C2B29F9
:10025000292986172C298613A600061700000613E5
:100260000000A30B25298515000085110000242816
:10027000A0010830A30005154D2105114D21051CD5
:1002800044294229031445290310851400008510D0
:100290000000A00DA30B3F2908001430A400532137
:1002A000A40B4F290800F930FF3E031D5429080014
:00000001FF
